{
  "contractName": "PLTT",
  "abi": [
    {
      "anonymous": false,
      "inputs": [
        {
          "indexed": false,
          "internalType": "address",
          "name": "updater",
          "type": "address"
        },
        {
          "indexed": false,
          "internalType": "uint256",
          "name": "a",
          "type": "uint256"
        }
      ],
      "name": "updateA",
      "type": "event"
    },
    {
      "inputs": [
        {
          "internalType": "uint256",
          "name": "new_a",
          "type": "uint256"
        }
      ],
      "name": "setData",
      "outputs": [],
      "stateMutability": "nonpayable",
      "type": "function"
    }
  ],
  "bytecode": "0x6080604052348015600f57600080fd5b5060ed8061001e6000396000f3fe6080604052348015600f57600080fd5b506004361060285760003560e01c80635b4b73a914602d575b600080fd5b605660048036036020811015604157600080fd5b81019080803590602001909291905050506058565b005b806000819055507fb971eb9cf4a5b8205e693fef40da22122a051a8319a91b03c71388ab9e9007b63382604051808373ffffffffffffffffffffffffffffffffffffffff1681526020018281526020019250505060405180910390a15056fea2646970667358221220cad5439a1197912865d181852dad7b8ae01fcbc182ec29f12ac8582e744aaa4064736f6c63430007040033",
  "immutableReferences": {},
  "source": "// SPDX-License-Identifier: MIT\npragma solidity >=0.4.22 <0.9.0;\n\ncontract PLTT {\n\n  uint a;\n\n  event updateA(address updater, uint a); // Event\n\n  function setData(uint new_a) public {\n    a = new_a;\n    emit updateA(msg.sender, new_a);\n  }\n\n}\n",
  "sourcePath": "/home/azureuser/github/smartContract/contracts/PLTT.sol",
  "compiler": {
    "name": "solc",
    "version": "0.7.4+commit.3f05b770.Linux.g++"
  },
  "schemaVersion": "3.3.3",
  "updatedAt": "2021-01-13T09:07:44.626Z",
  "devdoc": {
    "kind": "dev",
    "methods": {},
    "version": 1
  },
  "userdoc": {
    "kind": "user",
    "methods": {},
    "version": 1
  }
}